{
  "transactions": [
    {
      "hash": "0x1dd7e8f4829ac87dcb9504537d55ee65e6045928dbb535e77333e4f804880a91",
      "transactionType": "CREATE",
      "contractName": "VaultManager",
      "contractAddress": "0x5fbdb2315678afecb367f032d93f642f64180aa3",
      "function": null,
      "arguments": null,
      "transaction": {
        "from": "0xf39fd6e51aad88f6f4ce6ab8827279cfffb92266",
        "gas": "0x5333d",
        "value": "0x0",
        "input": "0x6080604052348015600e575f5ffd5b506103c68061001c5f395ff3fe608060405234801561000f575f5ffd5b506004361061004a575f3560e01c806305c4fdf91461004e5780638c294fc8146100635780639c841fef1461009e578063fdc10daf146100c9575b5f5ffd5b61006161005c3660046102f2565b6100dc565b005b61008b610071366004610329565b6001600160a01b03165f9081526020819052604090205490565b6040519081526020015b60405180910390f35b6100b16100ac36600461034b565b610151565b6040516001600160a01b039091168152602001610095565b6100616100d73660046102f2565b610184565b6001600160a01b038281165f8181526020818152604080832080546001810182559084529282902090920180546001600160a01b0319169486169485179055905192835290917f5d9c31ffa0fecffd7cf379989a3c7af252f0335e0d2a1320b55245912c781f53910160405180910390a25050565b5f602052815f5260405f208181548110610169575f80fd5b5f918252602090912001546001600160a01b03169150829050565b5f829050806001600160a01b0316638da5cb5b6040518163ffffffff1660e01b8152600401602060405180830381865afa1580156101c4573d5f5f3e3d5ffd5b505050506040513d601f19601f820116820180604052508101906101e89190610375565b6001600160a01b0316336001600160a01b03161461023e5760405162461bcd60e51b815260206004820152600f60248201526e2737ba103b30bab63a1037bbb732b960891b604482015260640160405180910390fd5b60405163f2fde38b60e01b81526001600160a01b03838116600483015282169063f2fde38b906024015f604051808303815f87803b15801561027e575f5ffd5b505af1158015610290573d5f5f3e3d5ffd5b50506040516001600160a01b038681168252851692503391507fc8894f26f396ce8c004245c8b7cd1b92103a6e4302fcbab883987149ac01b7ec9060200160405180910390a3505050565b6001600160a01b03811681146102ef575f5ffd5b50565b5f5f60408385031215610303575f5ffd5b823561030e816102db565b9150602083013561031e816102db565b809150509250929050565b5f60208284031215610339575f5ffd5b8135610344816102db565b9392505050565b5f5f6040838503121561035c575f5ffd5b8235610367816102db565b946020939093013593505050565b5f60208284031215610385575f5ffd5b8151610344816102db56fea264697066735822122089c3186a93e705c9814bbaaf42defed1136bee6908b80ca7cd077e2dce3ca15864736f6c634300081e0033",
        "nonce": "0x0",
        "chainId": "0x7a69"
      },
      "additionalContracts": [],
      "isFixedGasLimit": false
    },
    {
      "hash": "0x2c4d0f09ced17e4a5a475a038f21cfbc3d2023fba9ac1f7e364b4a53b1deffc9",
      "transactionType": "CREATE",
      "contractName": "BasicDepositBox",
      "contractAddress": "0xe7f1725e7734ce288f8367e1bb143e90bb3f0512",
      "function": null,
      "arguments": [
        "0xf39Fd6e51aad88F6F4ce6aB8827279cffFb92266"
      ],
      "transaction": {
        "from": "0xf39fd6e51aad88f6f4ce6ab8827279cfffb92266",
        "gas": "0x459a4",
        "value": "0x0",
        "input": "0x6080604052348015600e575f5ffd5b50604051610315380380610315833981016040819052602b91604e565b5f80546001600160a01b0319166001600160a01b03929092169190911790556079565b5f60208284031215605d575f5ffd5b81516001600160a01b03811681146072575f5ffd5b9392505050565b61028f806100865f395ff3fe60806040526004361061004c575f3560e01c806312065fe0146100575780632e1a7d4d146100765780638da5cb5b14610097578063d0e30db014610095578063f2fde38b146100bd575f5ffd5b3661005357005b5f5ffd5b348015610062575f5ffd5b506040514781526020015b60405180910390f35b348015610081575f5ffd5b50610095610090366004610215565b6100dc565b005b3480156100a2575f5ffd5b505f546040516001600160a01b03909116815260200161006d565b3480156100c8575f5ffd5b506100956100d736600461022c565b6101ab565b5f546001600160a01b0316331461012a5760405162461bcd60e51b815260206004820152600d60248201526c2737ba103a34329037bbb732b960991b60448201526064015b60405180910390fd5b804710156101715760405162461bcd60e51b8152602060048201526014602482015273496e73756666696369656e742062616c616e636560601b6044820152606401610121565b5f80546040516001600160a01b039091169183156108fc02918491818181858888f193505050501580156101a7573d5f5f3e3d5ffd5b5050565b5f546001600160a01b031633146101f45760405162461bcd60e51b815260206004820152600d60248201526c2737ba103a34329037bbb732b960991b6044820152606401610121565b5f80546001600160a01b0319166001600160a01b0392909216919091179055565b5f60208284031215610225575f5ffd5b5035919050565b5f6020828403121561023c575f5ffd5b81356001600160a01b0381168114610252575f5ffd5b939250505056fea264697066735822122084614b42d10f61365bb3991c7f053369c87f35b081f39eb3c93e803e9dd3a06264736f6c634300081e0033000000000000000000000000f39fd6e51aad88f6f4ce6ab8827279cfffb92266",
        "nonce": "0x1",
        "chainId": "0x7a69"
      },
      "additionalContracts": [],
      "isFixedGasLimit": false
    },
    {
      "hash": "0x3758bb2ba01ecda87776f416ec939a99adced32c5240762358c1920d775eb26c",
      "transactionType": "CALL",
      "contractName": "VaultManager",
      "contractAddress": "0x5fbdb2315678afecb367f032d93f642f64180aa3",
      "function": "registerVault(address,address)",
      "arguments": [
        "0xf39Fd6e51aad88F6F4ce6aB8827279cffFb92266",
        "0xe7f1725E7734CE288F8367e1Bb143E90bb3F0512"
      ],
      "transaction": {
        "from": "0xf39fd6e51aad88f6f4ce6ab8827279cfffb92266",
        "to": "0x5fbdb2315678afecb367f032d93f642f64180aa3",
        "gas": "0x16f11",
        "value": "0x0",
        "input": "0x05c4fdf9000000000000000000000000f39fd6e51aad88f6f4ce6ab8827279cfffb92266000000000000000000000000e7f1725e7734ce288f8367e1bb143e90bb3f0512",
        "nonce": "0x2",
        "chainId": "0x7a69"
      },
      "additionalContracts": [],
      "isFixedGasLimit": false
    }
  ],
  "receipts": [
    {
      "status": "0x1",
      "cumulativeGasUsed": "0x40008",
      "logs": [],
      "logsBloom": "0x00000000000000000000000000000000000000000000000000000000000000000000000000000000000000000000000000000000000000000000000000000000000000000000000000000000000000000000000000000000000000000000000000000000000000000000000000000000000000000000000000000000000000000000000000000000000000000000000000000000000000000000000000000000000000000000000000000000000000000000000000000000000000000000000000000000000000000000000000000000000000000000000000000000000000000000000000000000000000000000000000000000000000000000000000000000",
      "type": "0x2",
      "transactionHash": "0x1dd7e8f4829ac87dcb9504537d55ee65e6045928dbb535e77333e4f804880a91",
      "transactionIndex": "0x0",
      "blockHash": "0x6d5b32e0f74f4001847786fb46290c5c2eea43635ac0357243f6012ea33a2752",
      "blockNumber": "0x1",
      "gasUsed": "0x40008",
      "effectiveGasPrice": "0x3b9aca01",
      "blobGasPrice": "0x1",
      "from": "0xf39fd6e51aad88f6f4ce6ab8827279cfffb92266",
      "to": null,
      "contractAddress": "0x5fbdb2315678afecb367f032d93f642f64180aa3"
    },
    {
      "status": "0x1",
      "cumulativeGasUsed": "0x358a6",
      "logs": [],
      "logsBloom": "0x00000000000000000000000000000000000000000000000000000000000000000000000000000000000000000000000000000000000000000000000000000000000000000000000000000000000000000000000000000000000000000000000000000000000000000000000000000000000000000000000000000000000000000000000000000000000000000000000000000000000000000000000000000000000000000000000000000000000000000000000000000000000000000000000000000000000000000000000000000000000000000000000000000000000000000000000000000000000000000000000000000000000000000000000000000000",
      "type": "0x2",
      "transactionHash": "0x2c4d0f09ced17e4a5a475a038f21cfbc3d2023fba9ac1f7e364b4a53b1deffc9",
      "transactionIndex": "0x0",
      "blockHash": "0x9278d8d50fa92f3d70c8de03042e49f21cd5673da86ba6b2ce2e0354030fd1fc",
      "blockNumber": "0x2",
      "gasUsed": "0x358a6",
      "effectiveGasPrice": "0x3448c659",
      "blobGasPrice": "0x1",
      "from": "0xf39fd6e51aad88f6f4ce6ab8827279cfffb92266",
      "to": null,
      "contractAddress": "0xe7f1725e7734ce288f8367e1bb143e90bb3f0512"
    },
    {
      "status": "0x1",
      "cumulativeGasUsed": "0x46266",
      "logs": [
        {
          "address": "0x5fbdb2315678afecb367f032d93f642f64180aa3",
          "topics": [
            "0x5d9c31ffa0fecffd7cf379989a3c7af252f0335e0d2a1320b55245912c781f53",
            "0x000000000000000000000000f39fd6e51aad88f6f4ce6ab8827279cfffb92266"
          ],
          "data": "0x000000000000000000000000e7f1725e7734ce288f8367e1bb143e90bb3f0512",
          "blockHash": "0x9278d8d50fa92f3d70c8de03042e49f21cd5673da86ba6b2ce2e0354030fd1fc",
          "blockNumber": "0x2",
          "blockTimestamp": "0x68fa55e8",
          "transactionHash": "0x3758bb2ba01ecda87776f416ec939a99adced32c5240762358c1920d775eb26c",
          "transactionIndex": "0x1",
          "logIndex": "0x0",
          "removed": false
        }
      ],
      "logsBloom": "0x00000000000000000000000000000000000000000000000000000000000000000000000000000000000000000000000000000000000000000000000000000000000000000000000000000000000000000000000000000000000000000000000000000040000000000000000100000000000000000000000000000000000000000000000000000400000400000000000000000000000000000000000200000000000000000000000000000000000000000000000000000000000000000000000000000040000000200000000000000000000000002000000000000000000000000000000000000000040000000000000000000000000000000000000000000000",
      "type": "0x2",
      "transactionHash": "0x3758bb2ba01ecda87776f416ec939a99adced32c5240762358c1920d775eb26c",
      "transactionIndex": "0x1",
      "blockHash": "0x9278d8d50fa92f3d70c8de03042e49f21cd5673da86ba6b2ce2e0354030fd1fc",
      "blockNumber": "0x2",
      "gasUsed": "0x109c0",
      "effectiveGasPrice": "0x3448c659",
      "blobGasPrice": "0x1",
      "from": "0xf39fd6e51aad88f6f4ce6ab8827279cfffb92266",
      "to": "0x5fbdb2315678afecb367f032d93f642f64180aa3",
      "contractAddress": null
    }
  ],
  "libraries": [],
  "pending": [],
  "returns": {},
  "timestamp": 1761236456,
  "chain": 31337,
  "commit": "7fb4474"
}